{
  "_format": "hh-sol-artifact-1",
  "contractName": "Producer",
  "sourceName": "contracts/Producer.sol",
  "abi": [
    {
      "inputs": [
        {
          "internalType": "address",
          "name": "_VRFCoordinator",
          "type": "address"
        },
        {
          "internalType": "address",
          "name": "_linkToken",
          "type": "address"
        },
        {
          "internalType": "bytes32",
          "name": "_keyHash",
          "type": "bytes32"
        },
        {
          "internalType": "uint256",
          "name": "_maxSupply",
          "type": "uint256"
        }
      ],
      "stateMutability": "nonpayable",
      "type": "constructor"
    },
    {
      "anonymous": false,
      "inputs": [
        {
          "indexed": true,
          "internalType": "address",
          "name": "owner",
          "type": "address"
        },
        {
          "indexed": true,
          "internalType": "address",
          "name": "approved",
          "type": "address"
        },
        {
          "indexed": true,
          "internalType": "uint256",
          "name": "tokenId",
          "type": "uint256"
        }
      ],
      "name": "Approval",
      "type": "event"
    },
    {
      "anonymous": false,
      "inputs": [
        {
          "indexed": true,
          "internalType": "address",
          "name": "owner",
          "type": "address"
        },
        {
          "indexed": true,
          "internalType": "address",
          "name": "operator",
          "type": "address"
        },
        {
          "indexed": false,
          "internalType": "bool",
          "name": "approved",
          "type": "bool"
        }
      ],
      "name": "ApprovalForAll",
      "type": "event"
    },
    {
      "anonymous": false,
      "inputs": [
        {
          "indexed": true,
          "internalType": "address",
          "name": "previousOwner",
          "type": "address"
        },
        {
          "indexed": true,
          "internalType": "address",
          "name": "newOwner",
          "type": "address"
        }
      ],
      "name": "OwnershipTransferred",
      "type": "event"
    },
    {
      "anonymous": false,
      "inputs": [
        {
          "indexed": false,
          "internalType": "uint256",
          "name": "producerId",
          "type": "uint256"
        },
        {
          "indexed": false,
          "internalType": "uint256",
          "name": "spawnId",
          "type": "uint256"
        }
      ],
      "name": "ProducedSpawn",
      "type": "event"
    },
    {
      "anonymous": false,
      "inputs": [
        {
          "indexed": false,
          "internalType": "address",
          "name": "to",
          "type": "address"
        },
        {
          "indexed": false,
          "internalType": "uint256",
          "name": "producerId",
          "type": "uint256"
        },
        {
          "indexed": false,
          "internalType": "uint256",
          "name": "spawnId",
          "type": "uint256"
        },
        {
          "indexed": false,
          "internalType": "uint256",
          "name": "dataId",
          "type": "uint256"
        }
      ],
      "name": "SpawnedData",
      "type": "event"
    },
    {
      "anonymous": false,
      "inputs": [
        {
          "indexed": true,
          "internalType": "address",
          "name": "from",
          "type": "address"
        },
        {
          "indexed": true,
          "internalType": "address",
          "name": "to",
          "type": "address"
        },
        {
          "indexed": true,
          "internalType": "uint256",
          "name": "tokenId",
          "type": "uint256"
        }
      ],
      "name": "Transfer",
      "type": "event"
    },
    {
      "inputs": [],
      "name": "MAX_PRODUCERS",
      "outputs": [
        {
          "internalType": "uint256",
          "name": "",
          "type": "uint256"
        }
      ],
      "stateMutability": "view",
      "type": "function"
    },
    {
      "inputs": [
        {
          "internalType": "address",
          "name": "keeperAddress",
          "type": "address"
        }
      ],
      "name": "addKeeper",
      "outputs": [],
      "stateMutability": "nonpayable",
      "type": "function"
    },
    {
      "inputs": [
        {
          "internalType": "address",
          "name": "to",
          "type": "address"
        },
        {
          "internalType": "uint256",
          "name": "tokenId",
          "type": "uint256"
        }
      ],
      "name": "approve",
      "outputs": [],
      "stateMutability": "nonpayable",
      "type": "function"
    },
    {
      "inputs": [
        {
          "internalType": "address",
          "name": "owner",
          "type": "address"
        }
      ],
      "name": "balanceOf",
      "outputs": [
        {
          "internalType": "uint256",
          "name": "",
          "type": "uint256"
        }
      ],
      "stateMutability": "view",
      "type": "function"
    },
    {
      "inputs": [],
      "name": "baseURI",
      "outputs": [
        {
          "internalType": "string",
          "name": "",
          "type": "string"
        }
      ],
      "stateMutability": "view",
      "type": "function"
    },
    {
      "inputs": [
        {
          "internalType": "bytes",
          "name": "checkData",
          "type": "bytes"
        }
      ],
      "name": "checkUpkeep",
      "outputs": [
        {
          "internalType": "bool",
          "name": "upkeepNeeded",
          "type": "bool"
        },
        {
          "internalType": "bytes",
          "name": "performData",
          "type": "bytes"
        }
      ],
      "stateMutability": "nonpayable",
      "type": "function"
    },
    {
      "inputs": [],
      "name": "chunkInterval",
      "outputs": [
        {
          "internalType": "uint256",
          "name": "",
          "type": "uint256"
        }
      ],
      "stateMutability": "view",
      "type": "function"
    },
    {
      "inputs": [],
      "name": "chunkSize",
      "outputs": [
        {
          "internalType": "uint256",
          "name": "",
          "type": "uint256"
        }
      ],
      "stateMutability": "view",
      "type": "function"
    },
    {
      "inputs": [],
      "name": "claim",
      "outputs": [],
      "stateMutability": "nonpayable",
      "type": "function"
    },
    {
      "inputs": [],
      "name": "currChunkId",
      "outputs": [
        {
          "internalType": "uint256",
          "name": "",
          "type": "uint256"
        }
      ],
      "stateMutability": "view",
      "type": "function"
    },
    {
      "inputs": [],
      "name": "dataContract",
      "outputs": [
        {
          "internalType": "address",
          "name": "",
          "type": "address"
        }
      ],
      "stateMutability": "view",
      "type": "function"
    },
    {
      "inputs": [],
      "name": "dataMintCost",
      "outputs": [
        {
          "internalType": "uint256",
          "name": "",
          "type": "uint256"
        }
      ],
      "stateMutability": "view",
      "type": "function"
    },
    {
      "inputs": [
        {
          "internalType": "uint256",
          "name": "tokenId",
          "type": "uint256"
        }
      ],
      "name": "getApproved",
      "outputs": [
        {
          "internalType": "address",
          "name": "",
          "type": "address"
        }
      ],
      "stateMutability": "view",
      "type": "function"
    },
    {
      "inputs": [],
      "name": "getChunkSize",
      "outputs": [
        {
          "internalType": "uint256",
          "name": "",
          "type": "uint256"
        }
      ],
      "stateMutability": "view",
      "type": "function"
    },
    {
      "inputs": [
        {
          "internalType": "uint256",
          "name": "producerId",
          "type": "uint256"
        },
        {
          "internalType": "uint256",
          "name": "spawnId",
          "type": "uint256"
        }
      ],
      "name": "getData",
      "outputs": [
        {
          "internalType": "string",
          "name": "",
          "type": "string"
        }
      ],
      "stateMutability": "view",
      "type": "function"
    },
    {
      "inputs": [],
      "name": "getGlobalVRF",
      "outputs": [
        {
          "internalType": "uint256",
          "name": "",
          "type": "uint256"
        }
      ],
      "stateMutability": "view",
      "type": "function"
    },
    {
      "inputs": [
        {
          "internalType": "uint256",
          "name": "producerId",
          "type": "uint256"
        }
      ],
      "name": "getValue",
      "outputs": [
        {
          "internalType": "uint256",
          "name": "",
          "type": "uint256"
        }
      ],
      "stateMutability": "view",
      "type": "function"
    },
    {
      "inputs": [],
      "name": "globalVRF",
      "outputs": [
        {
          "internalType": "uint256",
          "name": "",
          "type": "uint256"
        }
      ],
      "stateMutability": "view",
      "type": "function"
    },
    {
      "inputs": [
        {
          "internalType": "address",
          "name": "owner",
          "type": "address"
        },
        {
          "internalType": "address",
          "name": "operator",
          "type": "address"
        }
      ],
      "name": "isApprovedForAll",
      "outputs": [
        {
          "internalType": "bool",
          "name": "",
          "type": "bool"
        }
      ],
      "stateMutability": "view",
      "type": "function"
    },
    {
      "inputs": [],
      "name": "isOwner",
      "outputs": [
        {
          "internalType": "bool",
          "name": "",
          "type": "bool"
        }
      ],
      "stateMutability": "view",
      "type": "function"
    },
    {
      "inputs": [],
      "name": "name",
      "outputs": [
        {
          "internalType": "string",
          "name": "",
          "type": "string"
        }
      ],
      "stateMutability": "view",
      "type": "function"
    },
    {
      "inputs": [],
      "name": "owner",
      "outputs": [
        {
          "internalType": "address",
          "name": "",
          "type": "address"
        }
      ],
      "stateMutability": "view",
      "type": "function"
    },
    {
      "inputs": [
        {
          "internalType": "uint256",
          "name": "tokenId",
          "type": "uint256"
        }
      ],
      "name": "ownerOf",
      "outputs": [
        {
          "internalType": "address",
          "name": "",
          "type": "address"
        }
      ],
      "stateMutability": "view",
      "type": "function"
    },
    {
      "inputs": [],
      "name": "pendingProducers",
      "outputs": [
        {
          "internalType": "uint256",
          "name": "",
          "type": "uint256"
        }
      ],
      "stateMutability": "view",
      "type": "function"
    },
    {
      "inputs": [
        {
          "internalType": "bytes",
          "name": "performData",
          "type": "bytes"
        }
      ],
      "name": "performUpkeep",
      "outputs": [],
      "stateMutability": "nonpayable",
      "type": "function"
    },
    {
      "inputs": [
        {
          "internalType": "uint256",
          "name": "producerId",
          "type": "uint256"
        },
        {
          "internalType": "string",
          "name": "data",
          "type": "string"
        }
      ],
      "name": "produce",
      "outputs": [
        {
          "internalType": "uint256",
          "name": "spawnId",
          "type": "uint256"
        }
      ],
      "stateMutability": "nonpayable",
      "type": "function"
    },
    {
      "inputs": [
        {
          "internalType": "uint256",
          "name": "producerId",
          "type": "uint256"
        },
        {
          "internalType": "uint256",
          "name": "dataId",
          "type": "uint256"
        }
      ],
      "name": "produced",
      "outputs": [
        {
          "internalType": "bool",
          "name": "",
          "type": "bool"
        }
      ],
      "stateMutability": "view",
      "type": "function"
    },
    {
      "inputs": [
        {
          "internalType": "uint256",
          "name": "",
          "type": "uint256"
        }
      ],
      "name": "producers",
      "outputs": [
        {
          "internalType": "uint256",
          "name": "value",
          "type": "uint256"
        },
        {
          "internalType": "uint256",
          "name": "produced",
          "type": "uint256"
        }
      ],
      "stateMutability": "view",
      "type": "function"
    },
    {
      "inputs": [
        {
          "internalType": "bytes32",
          "name": "requestId",
          "type": "bytes32"
        },
        {
          "internalType": "uint256",
          "name": "randomness",
          "type": "uint256"
        }
      ],
      "name": "rawFulfillRandomness",
      "outputs": [],
      "stateMutability": "nonpayable",
      "type": "function"
    },
    {
      "inputs": [
        {
          "internalType": "address",
          "name": "keeperAddress",
          "type": "address"
        }
      ],
      "name": "removeKeeper",
      "outputs": [],
      "stateMutability": "nonpayable",
      "type": "function"
    },
    {
      "inputs": [
        {
          "internalType": "bool",
          "name": "mintProducer",
          "type": "bool"
        }
      ],
      "name": "requestRandom",
      "outputs": [
        {
          "internalType": "bytes32",
          "name": "",
          "type": "bytes32"
        }
      ],
      "stateMutability": "nonpayable",
      "type": "function"
    },
    {
      "inputs": [
        {
          "internalType": "address",
          "name": "from",
          "type": "address"
        },
        {
          "internalType": "address",
          "name": "to",
          "type": "address"
        },
        {
          "internalType": "uint256",
          "name": "tokenId",
          "type": "uint256"
        }
      ],
      "name": "safeTransferFrom",
      "outputs": [],
      "stateMutability": "nonpayable",
      "type": "function"
    },
    {
      "inputs": [
        {
          "internalType": "address",
          "name": "from",
          "type": "address"
        },
        {
          "internalType": "address",
          "name": "to",
          "type": "address"
        },
        {
          "internalType": "uint256",
          "name": "tokenId",
          "type": "uint256"
        },
        {
          "internalType": "bytes",
          "name": "_data",
          "type": "bytes"
        }
      ],
      "name": "safeTransferFrom",
      "outputs": [],
      "stateMutability": "nonpayable",
      "type": "function"
    },
    {
      "inputs": [
        {
          "internalType": "address",
          "name": "operator",
          "type": "address"
        },
        {
          "internalType": "bool",
          "name": "approved",
          "type": "bool"
        }
      ],
      "name": "setApprovalForAll",
      "outputs": [],
      "stateMutability": "nonpayable",
      "type": "function"
    },
    {
      "inputs": [
        {
          "internalType": "address",
          "name": "_dataContract",
          "type": "address"
        }
      ],
      "name": "setDataContract",
      "outputs": [],
      "stateMutability": "nonpayable",
      "type": "function"
    },
    {
      "inputs": [
        {
          "internalType": "uint256",
          "name": "_chunkSize",
          "type": "uint256"
        },
        {
          "internalType": "uint256",
          "name": "_upkeepInterval",
          "type": "uint256"
        }
      ],
      "name": "setKeeperInterval",
      "outputs": [],
      "stateMutability": "nonpayable",
      "type": "function"
    },
    {
      "inputs": [
        {
          "internalType": "uint256",
          "name": "producerId",
          "type": "uint256"
        },
        {
          "internalType": "uint256",
          "name": "spawnId",
          "type": "uint256"
        }
      ],
      "name": "spawn",
      "outputs": [],
      "stateMutability": "payable",
      "type": "function"
    },
    {
      "inputs": [
        {
          "internalType": "bytes4",
          "name": "interfaceId",
          "type": "bytes4"
        }
      ],
      "name": "supportsInterface",
      "outputs": [
        {
          "internalType": "bool",
          "name": "",
          "type": "bool"
        }
      ],
      "stateMutability": "view",
      "type": "function"
    },
    {
      "inputs": [],
      "name": "symbol",
      "outputs": [
        {
          "internalType": "string",
          "name": "",
          "type": "string"
        }
      ],
      "stateMutability": "view",
      "type": "function"
    },
    {
      "inputs": [
        {
          "internalType": "uint256",
          "name": "index",
          "type": "uint256"
        }
      ],
      "name": "tokenByIndex",
      "outputs": [
        {
          "internalType": "uint256",
          "name": "",
          "type": "uint256"
        }
      ],
      "stateMutability": "view",
      "type": "function"
    },
    {
      "inputs": [
        {
          "internalType": "address",
          "name": "owner",
          "type": "address"
        },
        {
          "internalType": "uint256",
          "name": "index",
          "type": "uint256"
        }
      ],
      "name": "tokenOfOwnerByIndex",
      "outputs": [
        {
          "internalType": "uint256",
          "name": "",
          "type": "uint256"
        }
      ],
      "stateMutability": "view",
      "type": "function"
    },
    {
      "inputs": [
        {
          "internalType": "uint256",
          "name": "tokenId",
          "type": "uint256"
        }
      ],
      "name": "tokenURI",
      "outputs": [
        {
          "internalType": "string",
          "name": "",
          "type": "string"
        }
      ],
      "stateMutability": "view",
      "type": "function"
    },
    {
      "inputs": [],
      "name": "totalChunks",
      "outputs": [
        {
          "internalType": "uint256",
          "name": "",
          "type": "uint256"
        }
      ],
      "stateMutability": "view",
      "type": "function"
    },
    {
      "inputs": [],
      "name": "totalSupply",
      "outputs": [
        {
          "internalType": "uint256",
          "name": "",
          "type": "uint256"
        }
      ],
      "stateMutability": "view",
      "type": "function"
    },
    {
      "inputs": [
        {
          "internalType": "address",
          "name": "from",
          "type": "address"
        },
        {
          "internalType": "address",
          "name": "to",
          "type": "address"
        },
        {
          "internalType": "uint256",
          "name": "tokenId",
          "type": "uint256"
        }
      ],
      "name": "transferFrom",
      "outputs": [],
      "stateMutability": "nonpayable",
      "type": "function"
    },
    {
      "inputs": [
        {
          "internalType": "address",
          "name": "newOwner",
          "type": "address"
        }
      ],
      "name": "transferOwnership",
      "outputs": [],
      "stateMutability": "nonpayable",
      "type": "function"
    },
    {
      "inputs": [],
      "name": "treasurey",
      "outputs": [
        {
          "internalType": "address",
          "name": "",
          "type": "address"
        }
      ],
      "stateMutability": "view",
      "type": "function"
    },
    {
      "inputs": [],
      "name": "upkeepInterval",
      "outputs": [
        {
          "internalType": "uint256",
          "name": "",
          "type": "uint256"
        }
      ],
      "stateMutability": "view",
      "type": "function"
    }
  ],
  "bytecode": "0x60c060405266b1a2bc2ec50000600e553480156200001c57600080fd5b506040516200573638038062005736833981810160405260808110156200004257600080fd5b810190808051906020019092919080519060200190929190805190602001909291908051906020019092919050505083836040518060400160405280600881526020017f50726f64756365720000000000000000000000000000000000000000000000008152506040518060400160405280600481526020017f50524f4400000000000000000000000000000000000000000000000000000000815250620000f76301ffc9a760e01b6200033060201b60201c565b81600690805190602001906200010f92919062000439565b5080600790805190602001906200012892919062000439565b50620001416380ac58cd60e01b6200033060201b60201c565b62000159635b5e139f60e01b6200033060201b60201c565b6200017163780e9d6360e01b6200033060201b60201c565b50508173ffffffffffffffffffffffffffffffffffffffff1660a08173ffffffffffffffffffffffffffffffffffffffff1660601b815250508073ffffffffffffffffffffffffffffffffffffffff1660808173ffffffffffffffffffffffffffffffffffffffff1660601b81525050505033600b60006101000a81548173ffffffffffffffffffffffffffffffffffffffff021916908373ffffffffffffffffffffffffffffffffffffffff160217905550600b60009054906101000a900473ffffffffffffffffffffffffffffffffffffffff1673ffffffffffffffffffffffffffffffffffffffff16600073ffffffffffffffffffffffffffffffffffffffff167f8be0079c531659141344cd1fd0a4f28419497f9722a3daafe3b4186f6b6457e060405160405180910390a380600c81905550600c54600d819055508160148190555066038d7ea4c680006013819055506001601f60003373ffffffffffffffffffffffffffffffffffffffff1673ffffffffffffffffffffffffffffffffffffffff16815260200190815260200160002060006101000a81548160ff0219169083151502179055506000601a8190555050505050620004e8565b63ffffffff60e01b817bffffffffffffffffffffffffffffffffffffffffffffffffffffffff19161415620003cd576040517f08c379a000000000000000000000000000000000000000000000000000000000815260040180806020018281038252601c8152602001807f4552433136353a20696e76616c696420696e746572666163652069640000000081525060200191505060405180910390fd5b6001600080837bffffffffffffffffffffffffffffffffffffffffffffffffffffffff19167bffffffffffffffffffffffffffffffffffffffffffffffffffffffff1916815260200190815260200160002060006101000a81548160ff02191690831515021790555050565b828054600181600116156101000203166002900490600052602060002090601f016020900481019282601f106200047c57805160ff1916838001178555620004ad565b82800160010185558215620004ad579182015b82811115620004ac5782518255916020019190600101906200048f565b5b509050620004bc9190620004c0565b5090565b620004e591905b80821115620004e1576000816000905550600101620004c7565b5090565b90565b60805160601c60a05160601c61521f620005176000398061274c52806133f15250806133b5525061521f6000f3fe6080604052600436106102935760003560e01c8063683365201161015a57806394985ddd116100c1578063bdcf7ff21161007a578063bdcf7ff21461125b578063c4a942cb14611286578063c87b56dd146112b1578063ca7dbe7614611365578063e985e9c514611390578063f2fde38b1461141957610293565b806394985ddd14610f9657806395d89b4114610fdb5780639b68ade71461106b578063a22cb465146110c1578063adf9bcc61461111e578063b88d4fde1461114957610293565b806386dc07d41161011357806386dc07d414610e2b5780638da5cb5b14610e825780638f32d59b14610ed95780638f7b98e514610f0857806392b4791114610f40578063936f228514610f6b57610293565b80636833652014610af25780636945c79214610b435780636c0360eb14610be75780636e04ff0d14610c775780636f555c1e14610d8157806370a0823114610dc657610293565b8063312a5c3d116101fe5780634e71d92d116101b75780634e71d92d146109905780634f6ccce7146109a757806353d4de30146109f65780635a74373c14610a215780635bcc15bd14610a4c5780636352211e14610a7757610293565b8063312a5c3d146106f85780633e630bfe146107555780634032b72b1461078057806342842e0e146107d15780634585e33b1461084c5780634e4fe306146108d257610293565b80630ff4c916116102505780630ff4c9161461051857806314ae9f2e1461056757806318160ddd146105b857806323b872dd146105e35780632bd761701461065e5780632f745c591461068957610293565b806301ffc9a71461029857806303959bb71461030a57806306fdde031461035b578063081812fc146103eb578063095ea7b3146104665780630d668818146104c1575b600080fd5b3480156102a457600080fd5b506102f0600480360360208110156102bb57600080fd5b8101908080357bffffffffffffffffffffffffffffffffffffffffffffffffffffffff1916906020019092919050505061146a565b604051808215151515815260200191505060405180910390f35b34801561031657600080fd5b506103596004803603602081101561032d57600080fd5b81019080803573ffffffffffffffffffffffffffffffffffffffff1690602001909291905050506114d1565b005b34801561036757600080fd5b5061037061158f565b6040518080602001828103825283818151815260200191508051906020019080838360005b838110156103b0578082015181840152602081019050610395565b50505050905090810190601f1680156103dd5780820380516001836020036101000a031916815260200191505b509250505060405180910390f35b3480156103f757600080fd5b506104246004803603602081101561040e57600080fd5b8101908080359060200190929190505050611631565b604051808273ffffffffffffffffffffffffffffffffffffffff1673ffffffffffffffffffffffffffffffffffffffff16815260200191505060405180910390f35b34801561047257600080fd5b506104bf6004803603604081101561048957600080fd5b81019080803573ffffffffffffffffffffffffffffffffffffffff169060200190929190803590602001909291905050506116cc565b005b3480156104cd57600080fd5b506104d6611810565b604051808273ffffffffffffffffffffffffffffffffffffffff1673ffffffffffffffffffffffffffffffffffffffff16815260200191505060405180910390f35b34801561052457600080fd5b506105516004803603602081101561053b57600080fd5b8101908080359060200190929190505050611836565b6040518082815260200191505060405180910390f35b34801561057357600080fd5b506105b66004803603602081101561058a57600080fd5b81019080803573ffffffffffffffffffffffffffffffffffffffff1690602001909291905050506118d9565b005b3480156105c457600080fd5b506105cd6119a5565b6040518082815260200191505060405180910390f35b3480156105ef57600080fd5b5061065c6004803603606081101561060657600080fd5b81019080803573ffffffffffffffffffffffffffffffffffffffff169060200190929190803573ffffffffffffffffffffffffffffffffffffffff169060200190929190803590602001909291905050506119b6565b005b34801561066a57600080fd5b50610673611a2c565b6040518082815260200191505060405180910390f35b34801561069557600080fd5b506106e2600480360360408110156106ac57600080fd5b81019080803573ffffffffffffffffffffffffffffffffffffffff16906020019092919080359060200190929190505050611a32565b6040518082815260200191505060405180910390f35b34801561070457600080fd5b5061073b6004803603604081101561071b57600080fd5b810190808035906020019092919080359060200190929190505050611a8d565b604051808215151515815260200191505060405180910390f35b34801561076157600080fd5b5061076a611bd0565b6040518082815260200191505060405180910390f35b34801561078c57600080fd5b506107cf600480360360208110156107a357600080fd5b81019080803573ffffffffffffffffffffffffffffffffffffffff169060200190929190505050611bd6565b005b3480156107dd57600080fd5b5061084a600480360360608110156107f457600080fd5b81019080803573ffffffffffffffffffffffffffffffffffffffff169060200190929190803573ffffffffffffffffffffffffffffffffffffffff16906020019092919080359060200190929190505050611cab565b005b34801561085857600080fd5b506108d06004803603602081101561086f57600080fd5b810190808035906020019064010000000081111561088c57600080fd5b82018360208201111561089e57600080fd5b803590602001918460018302840111640100000000831117156108c057600080fd5b9091929391929390505050611ccb565b005b3480156108de57600080fd5b50610915600480360360408110156108f557600080fd5b810190808035906020019092919080359060200190929190505050611ccf565b6040518080602001828103825283818151815260200191508051906020019080838360005b8381101561095557808201518184015260208101905061093a565b50505050905090810190601f1680156109825780820380516001836020036101000a031916815260200191505b509250505060405180910390f35b34801561099c57600080fd5b506109a5611e1c565b005b3480156109b357600080fd5b506109e0600480360360208110156109ca57600080fd5b8101908080359060200190929190505050611fa4565b6040518082815260200191505060405180910390f35b348015610a0257600080fd5b50610a0b611fc7565b6040518082815260200191505060405180910390f35b348015610a2d57600080fd5b50610a36611fd1565b6040518082815260200191505060405180910390f35b348015610a5857600080fd5b50610a61611fd7565b6040518082815260200191505060405180910390f35b348015610a8357600080fd5b50610ab060048036036020811015610a9a57600080fd5b8101908080359060200190929190505050611fdd565b604051808273ffffffffffffffffffffffffffffffffffffffff1673ffffffffffffffffffffffffffffffffffffffff16815260200191505060405180910390f35b348015610afe57600080fd5b50610b2d60048036036020811015610b1557600080fd5b81019080803515159060200190929190505050612014565b6040518082815260200191505060405180910390f35b348015610b4f57600080fd5b50610bd160048036036040811015610b6657600080fd5b810190808035906020019092919080359060200190640100000000811115610b8d57600080fd5b820183602082011115610b9f57600080fd5b80359060200191846001830284011164010000000083111715610bc157600080fd5b909192939192939050505061212a565b6040518082815260200191505060405180910390f35b348015610bf357600080fd5b50610bfc612242565b6040518080602001828103825283818151815260200191508051906020019080838360005b83811015610c3c578082015181840152602081019050610c21565b50505050905090810190601f168015610c695780820380516001836020036101000a031916815260200191505b509250505060405180910390f35b348015610c8357600080fd5b50610cfb60048036036020811015610c9a57600080fd5b8101908080359060200190640100000000811115610cb757600080fd5b820183602082011115610cc957600080fd5b80359060200191846001830284011164010000000083111715610ceb57600080fd5b90919293919293905050506122e4565b604051808315151515815260200180602001828103825283818151815260200191508051906020019080838360005b83811015610d45578082015181840152602081019050610d2a565b50505050905090810190601f168015610d725780820380516001836020036101000a031916815260200191505b50935050505060405180910390f35b348015610d8d57600080fd5b50610dc460048036036040811015610da457600080fd5b8101908080359060200190929190803590602001909291905050506122ef565b005b348015610dd257600080fd5b50610e1560048036036020811015610de957600080fd5b81019080803573ffffffffffffffffffffffffffffffffffffffff1690602001909291905050506124d6565b6040518082815260200191505060405180910390f35b348015610e3757600080fd5b50610e406125ab565b604051808273ffffffffffffffffffffffffffffffffffffffff1673ffffffffffffffffffffffffffffffffffffffff16815260200191505060405180910390f35b348015610e8e57600080fd5b50610e976125d1565b604051808273ffffffffffffffffffffffffffffffffffffffff1673ffffffffffffffffffffffffffffffffffffffff16815260200191505060405180910390f35b348015610ee557600080fd5b50610eee6125fb565b604051808215151515815260200191505060405180910390f35b610f3e60048036036040811015610f1e57600080fd5b810190808035906020019092919080359060200190929190505050612653565b005b348015610f4c57600080fd5b50610f5561273a565b6040518082815260200191505060405180910390f35b348015610f7757600080fd5b50610f80612744565b6040518082815260200191505060405180910390f35b348015610fa257600080fd5b50610fd960048036036040811015610fb957600080fd5b81019080803590602001909291908035906020019092919050505061274a565b005b348015610fe757600080fd5b50610ff0612819565b6040518080602001828103825283818151815260200191508051906020019080838360005b83811015611030578082015181840152602081019050611015565b50505050905090810190601f16801561105d5780820380516001836020036101000a031916815260200191505b509250505060405180910390f35b34801561107757600080fd5b506110a46004803603602081101561108e57600080fd5b81019080803590602001909291905050506128bb565b604051808381526020018281526020019250505060405180910390f35b3480156110cd57600080fd5b5061111c600480360360408110156110e457600080fd5b81019080803573ffffffffffffffffffffffffffffffffffffffff1690602001909291908035151590602001909291905050506128ec565b005b34801561112a57600080fd5b50611133612aa4565b6040518082815260200191505060405180910390f35b34801561115557600080fd5b506112596004803603608081101561116c57600080fd5b81019080803573ffffffffffffffffffffffffffffffffffffffff169060200190929190803573ffffffffffffffffffffffffffffffffffffffff16906020019092919080359060200190929190803590602001906401000000008111156111d357600080fd5b8201836020820111156111e557600080fd5b8035906020019184600183028401116401000000008311171561120757600080fd5b91908080601f016020809104026020016040519081016040528093929190818152602001838380828437600081840152601f19601f820116905080830192505050505050509192919290505050612aaa565b005b34801561126757600080fd5b50611270612b22565b6040518082815260200191505060405180910390f35b34801561129257600080fd5b5061129b612b28565b6040518082815260200191505060405180910390f35b3480156112bd57600080fd5b506112ea600480360360208110156112d457600080fd5b8101908080359060200190929190505050612b2e565b6040518080602001828103825283818151815260200191508051906020019080838360005b8381101561132a57808201518184015260208101905061130f565b50505050905090810190601f1680156113575780820380516001836020036101000a031916815260200191505b509250505060405180910390f35b34801561137157600080fd5b5061137a612dff565b6040518082815260200191505060405180910390f35b34801561139c57600080fd5b506113ff600480360360408110156113b357600080fd5b81019080803573ffffffffffffffffffffffffffffffffffffffff169060200190929190803573ffffffffffffffffffffffffffffffffffffffff169060200190929190505050612e05565b604051808215151515815260200191505060405180910390f35b34801561142557600080fd5b506114686004803603602081101561143c57600080fd5b81019080803573ffffffffffffffffffffffffffffffffffffffff169060200190929190505050612e99565b005b6000806000837bffffffffffffffffffffffffffffffffffffffffffffffffffffffff19167bffffffffffffffffffffffffffffffffffffffffffffffffffffffff1916815260200190815260200160002060009054906101000a900460ff169050919050565b6114d96125fb565b61154b576040517f08c379a00000000000000000000000000000000000000000000000000000000081526004018080602001828103825260208152602001807f4f776e61626c653a2063616c6c6572206973206e6f7420746865206f776e657281525060200191505060405180910390fd5b80600f60006101000a81548173ffffffffffffffffffffffffffffffffffffffff021916908373ffffffffffffffffffffffffffffffffffffffff16021790555050565b606060068054600181600116156101000203166002900480601f0160208091040260200160405190810160405280929190818152602001828054600181600116156101000203166002900480156116275780601f106115fc57610100808354040283529160200191611627565b820191906000526020600020905b81548152906001019060200180831161160a57829003601f168201915b5050505050905090565b600061163c82612f1f565b611691576040517f08c379a000000000000000000000000000000000000000000000000000000000815260040180806020018281038252602c815260200180615114602c913960400191505060405180910390fd5b6004600083815260200190815260200160002060009054906101000a900473ffffffffffffffffffffffffffffffffffffffff169050919050565b60006116d782611fdd565b90508073ffffffffffffffffffffffffffffffffffffffff168373ffffffffffffffffffffffffffffffffffffffff16141561175e576040517f08c379a00000000000000000000000000000000000000000000000000000000081526004018080602001828103825260218152602001806151986021913960400191505060405180910390fd5b8073ffffffffffffffffffffffffffffffffffffffff1661177d612f3c565b73ffffffffffffffffffffffffffffffffffffffff1614806117ac57506117ab816117a6612f3c565b612e05565b5b611801576040517f08c379a00000000000000000000000000000000000000000000000000000000081526004018080602001828103825260388152602001806150426038913960400191505060405180910390fd5b61180b8383612f44565b505050565b600f60009054906101000a900473ffffffffffffffffffffffffffffffffffffffff1681565b600061184182612f1f565b6118b3576040517f08c379a00000000000000000000000000000000000000000000000000000000081526004018080602001828103825260148152602001807f50726f6475636572206e6f6e6578697374656e7400000000000000000000000081525060200191505060405180910390fd5b602082815481106118c057fe5b9060005260206000209060030201600001549050919050565b6118e16125fb565b611953576040517f08c379a00000000000000000000000000000000000000000000000000000000081526004018080602001828103825260208152602001807f4f776e61626c653a2063616c6c6572206973206e6f7420746865206f776e657281525060200191505060405180910390fd5b601f60008273ffffffffffffffffffffffffffffffffffffffff1673ffffffffffffffffffffffffffffffffffffffff16815260200190815260200160002060006101000a81549060ff021916905550565b60006119b16002612ffd565b905090565b6119c76119c1612f3c565b82613012565b611a1c576040517f08c379a00000000000000000000000000000000000000000000000000000000081526004018080602001828103825260318152602001806151b96031913960400191505060405180910390fd5b611a27838383613106565b505050565b600e5481565b6000611a8582600160008673ffffffffffffffffffffffffffffffffffffffff1673ffffffffffffffffffffffffffffffffffffffff16815260200190815260200160002061334990919063ffffffff16565b905092915050565b6000611a9883612f1f565b611b0a576040517f08c379a00000000000000000000000000000000000000000000000000000000081526004018080602001828103825260148152602001807f50726f6475636572206e6f6e6578697374656e7400000000000000000000000081525060200191505060405180910390fd5b6000821015611b81576040517f08c379a00000000000000000000000000000000000000000000000000000000081526004018080602001828103825260118152602001807f4d75737420626520706f7369746976652e00000000000000000000000000000081525060200191505060405180910390fd5b60008360208581548110611b9157fe5b906000526020600020906003020160010154600c5402019050808311158015611bc757506000600c5485850381611bc457fe5b06145b91505092915050565b601c5481565b611bde6125fb565b611c50576040517f08c379a00000000000000000000000000000000000000000000000000000000081526004018080602001828103825260208152602001807f4f776e61626c653a2063616c6c6572206973206e6f7420746865206f776e657281525060200191505060405180910390fd5b6001601f60008373ffffffffffffffffffffffffffffffffffffffff1673ffffffffffffffffffffffffffffffffffffffff16815260200190815260200160002060006101000a81548160ff02191690831515021790555050565b611cc683838360405180602001604052806000815250612aaa565b505050565b5050565b6060611cda83612f1f565b611d4c576040517f08c379a00000000000000000000000000000000000000000000000000000000081526004018080602001828103825260148152602001807f50726f6475636572206e6f6e6578697374656e7400000000000000000000000081525060200191505060405180910390fd5b60208381548110611d5957fe5b906000526020600020906003020160020160008381526020019081526020016000208054600181600116156101000203166002900480601f016020809104026020016040519081016040528092919081815260200182805460018160011615610100020316600290048015611e0f5780601f10611de457610100808354040283529160200191611e0f565b820191906000526020600020905b815481529060010190602001808311611df257829003601f168201915b5050505050905092915050565b6000601160003373ffffffffffffffffffffffffffffffffffffffff1673ffffffffffffffffffffffffffffffffffffffff1681526020019081526020016000205411611ed1576040517f08c379a00000000000000000000000000000000000000000000000000000000081526004018080602001828103825260118152602001807f4e6f7468696e6720746f20636c61696d2e00000000000000000000000000000081525060200191505060405180910390fd5b6000601160003373ffffffffffffffffffffffffffffffffffffffff1673ffffffffffffffffffffffffffffffffffffffff1681526020019081526020016000205490503373ffffffffffffffffffffffffffffffffffffffff166108fc829081150290604051600060405180830381858888f19350505050158015611f5b573d6000803e3d6000fd5b506000601160003373ffffffffffffffffffffffffffffffffffffffff1673ffffffffffffffffffffffffffffffffffffffff1681526020019081526020016000208190555050565b600080611fbb83600261336390919063ffffffff16565b50905080915050919050565b6000601b54905090565b601e5481565b601d5481565b600061200d826040518060600160405280602981526020016150c96029913960026133929092919063ffffffff16565b9050919050565b60008115612095576000600d5411612094576040517f08c379a00000000000000000000000000000000000000000000000000000000081526004018080602001828103825260198152602001807f416c6c2070726f64756365727320617265206d696e7465642e0000000000000081525060200191505060405180910390fd5b5b60006120a56014546013546133b1565b9050826019600083815260200190815260200160002060006101000a81548160ff021916908315150217905550336017600083815260200190815260200160002060006101000a81548173ffffffffffffffffffffffffffffffffffffffff021916908373ffffffffffffffffffffffffffffffffffffffff16021790555050919050565b6000601f60003373ffffffffffffffffffffffffffffffffffffffff1673ffffffffffffffffffffffffffffffffffffffff16815260200190815260200160002060009054906101000a900460ff166121eb576040517f08c379a00000000000000000000000000000000000000000000000000000000081526004018080602001828103825260118152602001807f4d7573742062652061206b65657065722e00000000000000000000000000000081525060200191505060405180910390fd5b6122398484848080601f016020809104026020016040519081016040528093929190818152602001838380828437600081840152601f19601f820116905080830192505050505050506135c0565b90509392505050565b606060098054600181600116156101000203166002900480601f0160208091040260200160405190810160405280929190818152602001828054600181600116156101000203166002900480156122da5780601f106122af576101008083540402835291602001916122da565b820191906000526020600020905b8154815290600101906020018083116122bd57829003601f168201915b5050505050905090565b600060609250929050565b6122f76125fb565b612369576040517f08c379a00000000000000000000000000000000000000000000000000000000081526004018080602001828103825260208152602001807f4f776e61626c653a2063616c6c6572206973206e6f7420746865206f776e657281525060200191505060405180910390fd5b600082116123df576040517f08c379a00000000000000000000000000000000000000000000000000000000081526004018080602001828103825260208152602001807f6368756e6b53697a65206d7573742062652067726561746572207468616e203081525060200191505060405180910390fd5b60008111612438576040517f08c379a000000000000000000000000000000000000000000000000000000000815260040180806020018281038252602581526020018061507a6025913960400191505060405180910390fd5b600082600c548161244557fe5b061461249c576040517f08c379a000000000000000000000000000000000000000000000000000000000815260040180806020018281038252602e815260200180614f9e602e913960400191505060405180910390fd5b81601b81905550601b54600c54816124b057fe5b04601c8190555080601e81905550601c54601e54816124cb57fe5b04601d819055505050565b60008073ffffffffffffffffffffffffffffffffffffffff168273ffffffffffffffffffffffffffffffffffffffff16141561255d576040517f08c379a000000000000000000000000000000000000000000000000000000000815260040180806020018281038252602a81526020018061509f602a913960400191505060405180910390fd5b6125a4600160008473ffffffffffffffffffffffffffffffffffffffff1673ffffffffffffffffffffffffffffffffffffffff168152602001908152602001600020613714565b9050919050565b601060009054906101000a900473ffffffffffffffffffffffffffffffffffffffff1681565b6000600b60009054906101000a900473ffffffffffffffffffffffffffffffffffffffff16905090565b6000600b60009054906101000a900473ffffffffffffffffffffffffffffffffffffffff1673ffffffffffffffffffffffffffffffffffffffff163373ffffffffffffffffffffffffffffffffffffffff1614905090565b600e5434146126ca576040517f08c379a000000000000000000000000000000000000000000000000000000000815260040180806020018281038252601e8152602001807f4461746120636f73747320302e3035206176617820746f20737061776e2e000081525060200191505060405180910390fd5b6126d5338383613729565b6002600e54816126e157fe5b04601160006126ef85611fdd565b73ffffffffffffffffffffffffffffffffffffffff1673ffffffffffffffffffffffffffffffffffffffff168152602001908152602001600020600082825401925050819055505050565b6000601254905090565b60125481565b7f000000000000000000000000000000000000000000000000000000000000000073ffffffffffffffffffffffffffffffffffffffff163373ffffffffffffffffffffffffffffffffffffffff161461280b576040517f08c379a000000000000000000000000000000000000000000000000000000000815260040180806020018281038252601f8152602001807f4f6e6c7920565246436f6f7264696e61746f722063616e2066756c66696c6c0081525060200191505060405180910390fd5b6128158282613971565b5050565b606060078054600181600116156101000203166002900480601f0160208091040260200160405190810160405280929190818152602001828054600181600116156101000203166002900480156128b15780601f10612886576101008083540402835291602001916128b1565b820191906000526020600020905b81548152906001019060200180831161289457829003601f168201915b5050505050905090565b602081815481106128c857fe5b90600052602060002090600302016000915090508060000154908060010154905082565b6128f4612f3c565b73ffffffffffffffffffffffffffffffffffffffff168273ffffffffffffffffffffffffffffffffffffffff161415612995576040517f08c379a00000000000000000000000000000000000000000000000000000000081526004018080602001828103825260198152602001807f4552433732313a20617070726f766520746f2063616c6c65720000000000000081525060200191505060405180910390fd5b80600560006129a2612f3c565b73ffffffffffffffffffffffffffffffffffffffff1673ffffffffffffffffffffffffffffffffffffffff16815260200190815260200160002060008473ffffffffffffffffffffffffffffffffffffffff1673ffffffffffffffffffffffffffffffffffffffff16815260200190815260200160002060006101000a81548160ff0219169083151502179055508173ffffffffffffffffffffffffffffffffffffffff16612a4f612f3c565b73ffffffffffffffffffffffffffffffffffffffff167f17307eab39ab6107e8899845ad3d59bd9653f200f220920489ca2b5937696c3183604051808215151515815260200191505060405180910390a35050565b600c5481565b612abb612ab5612f3c565b83613012565b612b10576040517f08c379a00000000000000000000000000000000000000000000000000000000081526004018080602001828103825260318152602001806151b96031913960400191505060405180910390fd5b612b1c84848484613ae8565b50505050565b600d5481565b601b5481565b6060612b3982612f1f565b612b8e576040517f08c379a000000000000000000000000000000000000000000000000000000000815260040180806020018281038252602f815260200180615169602f913960400191505060405180910390fd5b6060600860008481526020019081526020016000208054600181600116156101000203166002900480601f016020809104026020016040519081016040528092919081815260200182805460018160011615610100020316600290048015612c375780601f10612c0c57610100808354040283529160200191612c37565b820191906000526020600020905b815481529060010190602001808311612c1a57829003601f168201915b505050505090506060612c48612242565b9050600081511415612c5e578192505050612dfa565b600082511115612d2f5780826040516020018083805190602001908083835b60208310612ca05780518252602082019150602081019050602083039250612c7d565b6001836020036101000a03801982511681845116808217855250505050505090500182805190602001908083835b60208310612cf15780518252602082019150602081019050602083039250612cce565b6001836020036101000a0380198251168184511680821785525050505050509050019250505060405160208183030381529060405292505050612dfa565b80612d3985613b5a565b6040516020018083805190602001908083835b60208310612d6f5780518252602082019150602081019050602083039250612d4c565b6001836020036101000a03801982511681845116808217855250505050505090500182805190602001908083835b60208310612dc05780518252602082019150602081019050602083039250612d9d565b6001836020036101000a03801982511681845116808217855250505050505090500192505050604051602081830303815290604052925050505b919050565b601a5481565b6000600560008473ffffffffffffffffffffffffffffffffffffffff1673ffffffffffffffffffffffffffffffffffffffff16815260200190815260200160002060008373ffffffffffffffffffffffffffffffffffffffff1673ffffffffffffffffffffffffffffffffffffffff16815260200190815260200160002060009054906101000a900460ff16905092915050565b612ea16125fb565b612f13576040517f08c379a00000000000000000000000000000000000000000000000000000000081526004018080602001828103825260208152602001807f4f776e61626c653a2063616c6c6572206973206e6f7420746865206f776e657281525060200191505060405180910390fd5b612f1c81613ca1565b50565b6000612f35826002613de790919063ffffffff16565b9050919050565b600033905090565b816004600083815260200190815260200160002060006101000a81548173ffffffffffffffffffffffffffffffffffffffff021916908373ffffffffffffffffffffffffffffffffffffffff160217905550808273ffffffffffffffffffffffffffffffffffffffff16612fb783611fdd565b73ffffffffffffffffffffffffffffffffffffffff167f8c5be1e5ebec7d5bd14f71427d1e84f3dd0314c0f7b2291e5b200ac8c7c3b92560405160405180910390a45050565b600061300b82600001613e01565b9050919050565b600061301d82612f1f565b613072576040517f08c379a000000000000000000000000000000000000000000000000000000000815260040180806020018281038252602c815260200180615016602c913960400191505060405180910390fd5b600061307d83611fdd565b90508073ffffffffffffffffffffffffffffffffffffffff168473ffffffffffffffffffffffffffffffffffffffff1614806130ec57508373ffffffffffffffffffffffffffffffffffffffff166130d484611631565b73ffffffffffffffffffffffffffffffffffffffff16145b806130fd57506130fc8185612e05565b5b91505092915050565b8273ffffffffffffffffffffffffffffffffffffffff1661312682611fdd565b73ffffffffffffffffffffffffffffffffffffffff1614613192576040517f08c379a00000000000000000000000000000000000000000000000000000000081526004018080602001828103825260298152602001806151406029913960400191505060405180910390fd5b600073ffffffffffffffffffffffffffffffffffffffff168273ffffffffffffffffffffffffffffffffffffffff161415613218576040517f08c379a0000000000000000000000000000000000000000000000000000000008152600401808060200182810382526024815260200180614fcc6024913960400191505060405180910390fd5b613223838383613e12565b61322e600082612f44565b61327f81600160008673ffffffffffffffffffffffffffffffffffffffff1673ffffffffffffffffffffffffffffffffffffffff168152602001908152602001600020613e1790919063ffffffff16565b506132d181600160008573ffffffffffffffffffffffffffffffffffffffff1673ffffffffffffffffffffffffffffffffffffffff168152602001908152602001600020613e3190919063ffffffff16565b506132e881836002613e4b9092919063ffffffff16565b50808273ffffffffffffffffffffffffffffffffffffffff168473ffffffffffffffffffffffffffffffffffffffff167fddf252ad1be2c89b69c2b068fc378daa952ba7f163c4a11628f55a4df523b3ef60405160405180910390a4505050565b60006133588360000183613e80565b60001c905092915050565b6000806000806133768660000186613f03565b915091508160001c8160001c8090509350935050509250929050565b60006133a5846000018460001b84613f9c565b60001c90509392505050565b60007f000000000000000000000000000000000000000000000000000000000000000073ffffffffffffffffffffffffffffffffffffffff16634000aea07f00000000000000000000000000000000000000000000000000000000000000008486600060405160200180838152602001828152602001925050506040516020818303038152906040526040518463ffffffff1660e01b8152600401808473ffffffffffffffffffffffffffffffffffffffff1673ffffffffffffffffffffffffffffffffffffffff16815260200183815260200180602001828103825283818151815260200191508051906020019080838360005b838110156134c15780820151818401526020810190506134a6565b50505050905090810190601f1680156134ee5780820380516001836020036101000a031916815260200191505b50945050505050602060405180830381600087803b15801561350f57600080fd5b505af1158015613523573d6000803e3d6000fd5b505050506040513d602081101561353957600080fd5b810190808051906020019092919050505050600061356d84600030600a600089815260200190815260200160002054614092565b90506135966001600a60008781526020019081526020016000205461410c90919063ffffffff16565b600a6000868152602001908152602001600020819055506135b78482614194565b91505092915050565b60006135cb83612f1f565b61363d576040517f08c379a00000000000000000000000000000000000000000000000000000000081526004018080602001828103825260148152602001807f50726f6475636572206e6f6e6578697374656e7400000000000000000000000081525060200191505060405180910390fd5b6020838154811061364a57fe5b9060005260206000209060030201600101549050816020848154811061366c57fe5b9060005260206000209060030201600201600083815260200190815260200160002090805190602001906136a1929190614e36565b506001602084815481106136b157fe5b9060005260206000209060030201600101600082825401925050819055507f248c6667e95b98824338faf2f51ccfe9ecf7da15ccfe7fd14ec0e0c57bfb1d5a8382604051808381526020018281526020019250505060405180910390a192915050565b6000613722826000016141cd565b9050919050565b61373382826141de565b6137a5576040517f08c379a000000000000000000000000000000000000000000000000000000000815260040180806020018281038252601d8152602001807f50726f6475636572206f7220737061776e206e6f6e6578697374656e7400000081525060200191505060405180910390fd5b60006137b18383614375565b905060606137bf8484614386565b9050600f60009054906101000a900473ffffffffffffffffffffffffffffffffffffffff1673ffffffffffffffffffffffffffffffffffffffff1663da2b6de88684846040518463ffffffff1660e01b8152600401808473ffffffffffffffffffffffffffffffffffffffff1673ffffffffffffffffffffffffffffffffffffffff16815260200183815260200180602001828103825283818151815260200191508051906020019080838360005b8381101561388957808201518184015260208101905061386e565b50505050905090810190601f1680156138b65780820380516001836020036101000a031916815260200191505b50945050505050600060405180830381600087803b1580156138d757600080fd5b505af11580156138eb573d6000803e3d6000fd5b505050507f35a39b08bb51ea447be6df62daeabf20a45cebfb2b5111c988382ed3cc3ac23d33858585604051808573ffffffffffffffffffffffffffffffffffffffff1673ffffffffffffffffffffffffffffffffffffffff16815260200184815260200183815260200182815260200194505050505060405180910390a15050505050565b6019600083815260200190815260200160002060009054906101000a900460ff1615613adc576000600d5411613a0f576040517f08c379a00000000000000000000000000000000000000000000000000000000081526004018080602001828103825260198152602001807f416c6c2070726f64756365727320617265206d696e7465642e0000000000000081525060200191505060405180910390fd5b600060208054905090508060186000858152602001908152602001600020819055506020604051806040016040528084815260200160008152509080600181540180825580915050600190039060005260206000209060030201600090919091909150600082015181600001556020820151816001015550506001600d60008282540392505081905550613ad66017600085815260200190815260200160002060009054906101000a900473ffffffffffffffffffffffffffffffffffffffff1682614454565b50613ae4565b806012819055505b5050565b613af3848484613106565b613aff84848484614472565b613b54576040517f08c379a0000000000000000000000000000000000000000000000000000000008152600401808060200182810382526032815260200180614f466032913960400191505060405180910390fd5b50505050565b60606000821415613ba2576040518060400160405280600181526020017f30000000000000000000000000000000000000000000000000000000000000008152509050613c9c565b600082905060005b60008214613bcc578080600101915050600a8281613bc457fe5b049150613baa565b60608167ffffffffffffffff81118015613be557600080fd5b506040519080825280601f01601f191660200182016040528015613c185781602001600182028036833780820191505090505b50905060006001830390508593505b60008414613c9457600a8481613c3957fe5b0660300160f81b82828060019003935081518110613c5357fe5b60200101907effffffffffffffffffffffffffffffffffffffffffffffffffffffffffffff1916908160001a905350600a8481613c8c57fe5b049350613c27565b819450505050505b919050565b600073ffffffffffffffffffffffffffffffffffffffff168173ffffffffffffffffffffffffffffffffffffffff161415613d27576040517f08c379a0000000000000000000000000000000000000000000000000000000008152600401808060200182810382526026815260200180614f786026913960400191505060405180910390fd5b8073ffffffffffffffffffffffffffffffffffffffff16600b60009054906101000a900473ffffffffffffffffffffffffffffffffffffffff1673ffffffffffffffffffffffffffffffffffffffff167f8be0079c531659141344cd1fd0a4f28419497f9722a3daafe3b4186f6b6457e060405160405180910390a380600b60006101000a81548173ffffffffffffffffffffffffffffffffffffffff021916908373ffffffffffffffffffffffffffffffffffffffff16021790555050565b6000613df9836000018360001b6146b7565b905092915050565b600081600001805490509050919050565b505050565b6000613e29836000018360001b6146da565b905092915050565b6000613e43836000018360001b6147c2565b905092915050565b6000613e77846000018460001b8473ffffffffffffffffffffffffffffffffffffffff1660001b614832565b90509392505050565b600081836000018054905011613ee1576040517f08c379a0000000000000000000000000000000000000000000000000000000008152600401808060200182810382526022815260200180614f246022913960400191505060405180910390fd5b826000018281548110613ef057fe5b9060005260206000200154905092915050565b60008082846000018054905011613f65576040517f08c379a00000000000000000000000000000000000000000000000000000000081526004018080602001828103825260228152602001806150f26022913960400191505060405180910390fd5b6000846000018481548110613f7657fe5b906000526020600020906002020190508060000154816001015492509250509250929050565b60008084600101600085815260200190815260200160002054905060008114158390614063576040517f08c379a00000000000000000000000000000000000000000000000000000000081526004018080602001828103825283818151815260200191508051906020019080838360005b8381101561402857808201518184015260208101905061400d565b50505050905090810190601f1680156140555780820380516001836020036101000a031916815260200191505b509250505060405180910390fd5b5084600001600182038154811061407657fe5b9060005260206000209060020201600101549150509392505050565b600084848484604051602001808581526020018481526020018373ffffffffffffffffffffffffffffffffffffffff1673ffffffffffffffffffffffffffffffffffffffff1681526020018281526020019450505050506040516020818303038152906040528051906020012060001c9050949350505050565b60008082840190508381101561418a576040517f08c379a000000000000000000000000000000000000000000000000000000000815260040180806020018281038252601b8152602001807f536166654d6174683a206164646974696f6e206f766572666c6f77000000000081525060200191505060405180910390fd5b8091505092915050565b60008282604051602001808381526020018281526020019250505060405160208183030381529060405280519060200120905092915050565b600081600001805490509050919050565b60006141e983612f1f565b61425b576040517f08c379a00000000000000000000000000000000000000000000000000000000081526004018080602001828103825260188152602001807f50726f647563657220646f6573206e6f742065786973742e000000000000000081525060200191505060405180910390fd5b6020838154811061426857fe5b9060005260206000209060030201600101548210614289576000905061436f565b60606020848154811061429857fe5b906000526020600020906003020160020160008481526020019081526020016000208054600181600116156101000203166002900480601f01602080910402602001604051908101604052809291908181526020018280546001816001161561010002031660029004801561434e5780601f106143235761010080835404028352916020019161434e565b820191906000526020600020905b81548152906001019060200180831161433157829003601f168201915b5050505050905060008151141561436957600091505061436f565b60019150505b92915050565b600081600c54028301905092915050565b606061439283836141de565b614404576040517f08c379a000000000000000000000000000000000000000000000000000000000815260040180806020018281038252601d8152602001807f50726f6475636572206f7220737061776e206e6f6e6578697374656e7400000081525060200191505060405180910390fd5b61440e8383611ccf565b90506020838154811061441d57fe5b90600052602060002090600302016002016000838152602001908152602001600020600061444b9190614eb6565b80905092915050565b61446e82826040518060200160405280600081525061490e565b5050565b60006144938473ffffffffffffffffffffffffffffffffffffffff1661497f565b6144a057600190506146af565b606061463663150b7a0260e01b6144b5612f3c565b888787604051602401808573ffffffffffffffffffffffffffffffffffffffff1673ffffffffffffffffffffffffffffffffffffffff1681526020018473ffffffffffffffffffffffffffffffffffffffff1673ffffffffffffffffffffffffffffffffffffffff16815260200183815260200180602001828103825283818151815260200191508051906020019080838360005b8381101561456557808201518184015260208101905061454a565b50505050905090810190601f1680156145925780820380516001836020036101000a031916815260200191505b5095505050505050604051602081830303815290604052907bffffffffffffffffffffffffffffffffffffffffffffffffffffffff19166020820180517bffffffffffffffffffffffffffffffffffffffffffffffffffffffff8381831617835250505050604051806060016040528060328152602001614f46603291398773ffffffffffffffffffffffffffffffffffffffff166149929092919063ffffffff16565b9050600081806020019051602081101561464f57600080fd5b8101908080519060200190929190505050905063150b7a0260e01b7bffffffffffffffffffffffffffffffffffffffffffffffffffffffff1916817bffffffffffffffffffffffffffffffffffffffffffffffffffffffff191614925050505b949350505050565b600080836001016000848152602001908152602001600020541415905092915050565b600080836001016000848152602001908152602001600020549050600081146147b6576000600182039050600060018660000180549050039050600086600001828154811061472557fe5b906000526020600020015490508087600001848154811061474257fe5b906000526020600020018190555060018301876001016000838152602001908152602001600020819055508660000180548061477a57fe5b600190038181906000526020600020016000905590558660010160008781526020019081526020016000206000905560019450505050506147bc565b60009150505b92915050565b60006147ce83836149aa565b61482757826000018290806001815401808255809150506001900390600052602060002001600090919091909150558260000180549050836001016000848152602001908152602001600020819055506001905061482c565b600090505b92915050565b60008084600101600085815260200190815260200160002054905060008114156148d957846000016040518060400160405280868152602001858152509080600181540180825580915050600190039060005260206000209060020201600090919091909150600082015181600001556020820151816001015550508460000180549050856001016000868152602001908152602001600020819055506001915050614907565b828560000160018303815481106148ec57fe5b90600052602060002090600202016001018190555060009150505b9392505050565b61491883836149cd565b6149256000848484614472565b61497a576040517f08c379a0000000000000000000000000000000000000000000000000000000008152600401808060200182810382526032815260200180614f466032913960400191505060405180910390fd5b505050565b600080823b905060008111915050919050565b60606149a18484600085614bc1565b90509392505050565b600080836001016000848152602001908152602001600020541415905092915050565b600073ffffffffffffffffffffffffffffffffffffffff168273ffffffffffffffffffffffffffffffffffffffff161415614a70576040517f08c379a00000000000000000000000000000000000000000000000000000000081526004018080602001828103825260208152602001807f4552433732313a206d696e7420746f20746865207a65726f206164647265737381525060200191505060405180910390fd5b614a7981612f1f565b15614aec576040517f08c379a000000000000000000000000000000000000000000000000000000000815260040180806020018281038252601c8152602001807f4552433732313a20746f6b656e20616c7265616479206d696e7465640000000081525060200191505060405180910390fd5b614af860008383613e12565b614b4981600160008573ffffffffffffffffffffffffffffffffffffffff1673ffffffffffffffffffffffffffffffffffffffff168152602001908152602001600020613e3190919063ffffffff16565b50614b6081836002613e4b9092919063ffffffff16565b50808273ffffffffffffffffffffffffffffffffffffffff16600073ffffffffffffffffffffffffffffffffffffffff167fddf252ad1be2c89b69c2b068fc378daa952ba7f163c4a11628f55a4df523b3ef60405160405180910390a45050565b606082471015614c1c576040517f08c379a0000000000000000000000000000000000000000000000000000000008152600401808060200182810382526026815260200180614ff06026913960400191505060405180910390fd5b614c258561497f565b614c97576040517f08c379a000000000000000000000000000000000000000000000000000000000815260040180806020018281038252601d8152602001807f416464726573733a2063616c6c20746f206e6f6e2d636f6e747261637400000081525060200191505060405180910390fd5b600060608673ffffffffffffffffffffffffffffffffffffffff1685876040518082805190602001908083835b60208310614ce75780518252602082019150602081019050602083039250614cc4565b6001836020036101000a03801982511681845116808217855250505050505090500191505060006040518083038185875af1925050503d8060008114614d49576040519150601f19603f3d011682016040523d82523d6000602084013e614d4e565b606091505b5091509150614d5e828286614d6a565b92505050949350505050565b60608315614d7a57829050614e2f565b600083511115614d8d5782518084602001fd5b816040517f08c379a00000000000000000000000000000000000000000000000000000000081526004018080602001828103825283818151815260200191508051906020019080838360005b83811015614df4578082015181840152602081019050614dd9565b50505050905090810190601f168015614e215780820380516001836020036101000a031916815260200191505b509250505060405180910390fd5b9392505050565b828054600181600116156101000203166002900490600052602060002090601f016020900481019282601f10614e7757805160ff1916838001178555614ea5565b82800160010185558215614ea5579182015b82811115614ea4578251825591602001919060010190614e89565b5b509050614eb29190614efe565b5090565b50805460018160011615610100020316600290046000825580601f10614edc5750614efb565b601f016020900490600052602060002090810190614efa9190614efe565b5b50565b614f2091905b80821115614f1c576000816000905550600101614f04565b5090565b9056fe456e756d657261626c655365743a20696e646578206f7574206f6620626f756e64734552433732313a207472616e7366657220746f206e6f6e20455243373231526563656976657220696d706c656d656e7465724f776e61626c653a206e6577206f776e657220697320746865207a65726f20616464726573736368756e6b53697a65206d7573742062652061206d756c7469706c65206f66204d41585f50524f4455434552532e4552433732313a207472616e7366657220746f20746865207a65726f2061646472657373416464726573733a20696e73756666696369656e742062616c616e636520666f722063616c6c4552433732313a206f70657261746f7220717565727920666f72206e6f6e6578697374656e7420746f6b656e4552433732313a20617070726f76652063616c6c6572206973206e6f74206f776e6572206e6f7220617070726f76656420666f7220616c6c75706b656570496e74657276616c206d7573742062652067726561746572207468616e20304552433732313a2062616c616e636520717565727920666f7220746865207a65726f20616464726573734552433732313a206f776e657220717565727920666f72206e6f6e6578697374656e7420746f6b656e456e756d657261626c654d61703a20696e646578206f7574206f6620626f756e64734552433732313a20617070726f76656420717565727920666f72206e6f6e6578697374656e7420746f6b656e4552433732313a207472616e73666572206f6620746f6b656e2074686174206973206e6f74206f776e4552433732314d657461646174613a2055524920717565727920666f72206e6f6e6578697374656e7420746f6b656e4552433732313a20617070726f76616c20746f2063757272656e74206f776e65724552433732313a207472616e736665722063616c6c6572206973206e6f74206f776e6572206e6f7220617070726f766564a2646970667358221220be5f96c4ac2757fb62f4b8f9318e24cb0d72508de42d103355b82e473165927164736f6c63430006060033",
  "linkReferences": {},
  "deployedLinkReferences": {}
}